{
  "contractName": "CrowdFundingWithDeadline",
  "abi": [
    {
      "inputs": [
        {
          "internalType": "string",
          "name": "contractName",
          "type": "string"
        },
        {
          "internalType": "uint256",
          "name": "targetAmountEth",
          "type": "uint256"
        },
        {
          "internalType": "uint256",
          "name": "durationInMin",
          "type": "uint256"
        },
        {
          "internalType": "address",
          "name": "beneficiaryAddress",
          "type": "address"
        }
      ],
      "stateMutability": "nonpayable",
      "type": "constructor"
    },
    {
      "anonymous": false,
      "inputs": [
        {
          "indexed": false,
          "internalType": "address",
          "name": "addr",
          "type": "address"
        },
        {
          "indexed": false,
          "internalType": "uint256",
          "name": "totalCollected",
          "type": "uint256"
        },
        {
          "indexed": false,
          "internalType": "bool",
          "name": "succeeded",
          "type": "bool"
        }
      ],
      "name": "CampaignFinished",
      "type": "event"
    },
    {
      "inputs": [
        {
          "internalType": "address",
          "name": "",
          "type": "address"
        }
      ],
      "name": "amounts",
      "outputs": [
        {
          "internalType": "uint256",
          "name": "",
          "type": "uint256"
        }
      ],
      "stateMutability": "view",
      "type": "function",
      "constant": true
    },
    {
      "inputs": [],
      "name": "beneficiary",
      "outputs": [
        {
          "internalType": "address",
          "name": "",
          "type": "address"
        }
      ],
      "stateMutability": "view",
      "type": "function",
      "constant": true
    },
    {
      "inputs": [],
      "name": "collected",
      "outputs": [
        {
          "internalType": "bool",
          "name": "",
          "type": "bool"
        }
      ],
      "stateMutability": "view",
      "type": "function",
      "constant": true
    },
    {
      "inputs": [],
      "name": "fundingDeadline",
      "outputs": [
        {
          "internalType": "uint256",
          "name": "",
          "type": "uint256"
        }
      ],
      "stateMutability": "view",
      "type": "function",
      "constant": true
    },
    {
      "inputs": [],
      "name": "name",
      "outputs": [
        {
          "internalType": "string",
          "name": "",
          "type": "string"
        }
      ],
      "stateMutability": "view",
      "type": "function",
      "constant": true
    },
    {
      "inputs": [],
      "name": "state",
      "outputs": [
        {
          "internalType": "enum CrowdFundingWithDeadline.State",
          "name": "",
          "type": "uint8"
        }
      ],
      "stateMutability": "view",
      "type": "function",
      "constant": true
    },
    {
      "inputs": [],
      "name": "targetAmount",
      "outputs": [
        {
          "internalType": "uint256",
          "name": "",
          "type": "uint256"
        }
      ],
      "stateMutability": "view",
      "type": "function",
      "constant": true
    },
    {
      "inputs": [],
      "name": "totalCollected",
      "outputs": [
        {
          "internalType": "uint256",
          "name": "",
          "type": "uint256"
        }
      ],
      "stateMutability": "view",
      "type": "function",
      "constant": true
    },
    {
      "inputs": [],
      "name": "contribute",
      "outputs": [],
      "stateMutability": "payable",
      "type": "function",
      "payable": true
    },
    {
      "inputs": [],
      "name": "collect",
      "outputs": [],
      "stateMutability": "nonpayable",
      "type": "function"
    },
    {
      "inputs": [],
      "name": "withdraw",
      "outputs": [],
      "stateMutability": "nonpayable",
      "type": "function"
    },
    {
      "inputs": [],
      "name": "beforeDeadline",
      "outputs": [
        {
          "internalType": "bool",
          "name": "",
          "type": "bool"
        }
      ],
      "stateMutability": "view",
      "type": "function",
      "constant": true
    },
    {
      "inputs": [],
      "name": "finishCrowdFunding",
      "outputs": [],
      "stateMutability": "nonpayable",
      "type": "function"
    }
  ],
  "bytecode": "0x60806040523480156200001157600080fd5b5060405162001697380380620016978339818101604052810190620000379190620004e0565b83600090805190602001906200004f929190620001f3565b5073__Utils_________________________________63d8916bb9846040518263ffffffff1660e01b815260040162000089919062000582565b602060405180830381865af4158015620000a7573d6000803e3d6000fd5b505050506040513d601f19601f82011682018060405250810190620000cd91906200059f565b60018190555073__Utils_________________________________63cd6fb042836040518263ffffffff1660e01b81526004016200010c919062000582565b602060405180830381865af41580156200012a573d6000803e3d6000fd5b505050506040513d601f19601f820116820180604052508101906200015091906200059f565b62000160620001eb60201b60201c565b6200016c919062000600565b60028190555080600360006101000a81548173ffffffffffffffffffffffffffffffffffffffff021916908373ffffffffffffffffffffffffffffffffffffffff1602179055506000600360146101000a81548160ff02191690836003811115620001dc57620001db6200065d565b5b021790555050505050620006f1565b600042905090565b8280546200020190620006bb565b90600052602060002090601f01602090048101928262000225576000855562000271565b82601f106200024057805160ff191683800117855562000271565b8280016001018555821562000271579182015b828111156200027057825182559160200191906001019062000253565b5b50905062000280919062000284565b5090565b5b808211156200029f57600081600090555060010162000285565b5090565b6000604051905090565b600080fd5b600080fd5b600080fd5b600080fd5b6000601f19601f8301169050919050565b7f4e487b7100000000000000000000000000000000000000000000000000000000600052604160045260246000fd5b6200030c82620002c1565b810181811067ffffffffffffffff821117156200032e576200032d620002d2565b5b80604052505050565b600062000343620002a3565b905062000351828262000301565b919050565b600067ffffffffffffffff821115620003745762000373620002d2565b5b6200037f82620002c1565b9050602081019050919050565b60005b83811015620003ac5780820151818401526020810190506200038f565b83811115620003bc576000848401525b50505050565b6000620003d9620003d38462000356565b62000337565b905082815260208101848484011115620003f857620003f7620002bc565b5b620004058482856200038c565b509392505050565b600082601f830112620004255762000424620002b7565b5b815162000437848260208601620003c2565b91505092915050565b6000819050919050565b620004558162000440565b81146200046157600080fd5b50565b60008151905062000475816200044a565b92915050565b600073ffffffffffffffffffffffffffffffffffffffff82169050919050565b6000620004a8826200047b565b9050919050565b620004ba816200049b565b8114620004c657600080fd5b50565b600081519050620004da81620004af565b92915050565b60008060008060808587031215620004fd57620004fc620002ad565b5b600085015167ffffffffffffffff8111156200051e576200051d620002b2565b5b6200052c878288016200040d565b94505060206200053f8782880162000464565b9350506040620005528782880162000464565b92505060606200056587828801620004c9565b91505092959194509250565b6200057c8162000440565b82525050565b600060208201905062000599600083018462000571565b92915050565b600060208284031215620005b857620005b7620002ad565b5b6000620005c88482850162000464565b91505092915050565b7f4e487b7100000000000000000000000000000000000000000000000000000000600052601160045260246000fd5b60006200060d8262000440565b91506200061a8362000440565b9250827fffffffffffffffffffffffffffffffffffffffffffffffffffffffffffffffff03821115620006525762000651620005d1565b5b828201905092915050565b7f4e487b7100000000000000000000000000000000000000000000000000000000600052602160045260246000fd5b7f4e487b7100000000000000000000000000000000000000000000000000000000600052602260045260246000fd5b60006002820490506001821680620006d457607f821691505b60208210811415620006eb57620006ea6200068c565b5b50919050565b610f9680620007016000396000f3fe6080604052600436106100c25760003560e01c8063796b23bb1161007f578063c19d93fb11610059578063c19d93fb14610234578063d7bb99ba1461025f578063e29eb83614610269578063e522538114610294576100c2565b8063796b23bb146101b357806384bcefd4146101de578063953b8fb814610209576100c2565b806306fdde03146100c7578063083dca11146100f257806338af3eed146101095780633ccfd60b1461013457806355a3b2c11461014b57806368bc004114610188575b600080fd5b3480156100d357600080fd5b506100dc6102ab565b6040516100e99190610a6f565b60405180910390f35b3480156100fe57600080fd5b50610107610339565b005b34801561011557600080fd5b5061011e6104b7565b60405161012b9190610ad2565b60405180910390f35b34801561014057600080fd5b506101496104dd565b005b34801561015757600080fd5b50610172600480360381019061016d9190610b1e565b6106e1565b60405161017f9190610b64565b60405180910390f35b34801561019457600080fd5b5061019d6106f9565b6040516101aa9190610b9a565b60405180910390f35b3480156101bf57600080fd5b506101c861070c565b6040516101d59190610b64565b60405180910390f35b3480156101ea57600080fd5b506101f3610712565b6040516102009190610b9a565b60405180910390f35b34801561021557600080fd5b5061021e610725565b60405161022b9190610b64565b60405180910390f35b34801561024057600080fd5b5061024961072b565b6040516102569190610c2c565b60405180910390f35b61026761073e565b005b34801561027557600080fd5b5061027e610895565b60405161028b9190610b64565b60405180910390f35b3480156102a057600080fd5b506102a961089b565b005b600080546102b890610c76565b80601f01602080910402602001604051908101604052809291908181526020018280546102e490610c76565b80156103315780601f1061030657610100808354040283529160200191610331565b820191906000526020600020905b81548152906001019060200180831161031457829003601f168201915b505050505081565b600080600381111561034e5761034d610bb5565b5b600360149054906101000a900460ff1660038111156103705761036f610bb5565b5b146103b0576040517f08c379a00000000000000000000000000000000000000000000000000000000081526004016103a790610cf4565b60405180910390fd5b6103b86106f9565b156103f8576040517f08c379a00000000000000000000000000000000000000000000000000000000081526004016103ef90610d86565b60405180910390fd5b600560009054906101000a900460ff1661043c576001600360146101000a81548160ff0219169083600381111561043257610431610bb5565b5b0217905550610468565b6002600360146101000a81548160ff0219169083600381111561046257610461610bb5565b5b02179055505b7f6fa7e87ebbd87ed4f1c40bba63144f68fd2bb022fb748ab3b61b5411c39bd47430600654600560009054906101000a900460ff166040516104ac93929190610da6565b60405180910390a150565b600360009054906101000a900473ffffffffffffffffffffffffffffffffffffffff1681565b60018060038111156104f2576104f1610bb5565b5b600360149054906101000a900460ff16600381111561051457610513610bb5565b5b14610554576040517f08c379a000000000000000000000000000000000000000000000000000000000815260040161054b90610cf4565b60405180910390fd5b6000600460003373ffffffffffffffffffffffffffffffffffffffff1673ffffffffffffffffffffffffffffffffffffffff16815260200190815260200160002054116105d6576040517f08c379a00000000000000000000000000000000000000000000000000000000081526004016105cd90610e29565b60405180910390fd5b6000600460003373ffffffffffffffffffffffffffffffffffffffff1673ffffffffffffffffffffffffffffffffffffffff1681526020019081526020016000205490506000600460003373ffffffffffffffffffffffffffffffffffffffff1673ffffffffffffffffffffffffffffffffffffffff168152602001908152602001600020819055503373ffffffffffffffffffffffffffffffffffffffff166108fc829081150290604051600060405180830381858888f193505050506106dd5780600460003373ffffffffffffffffffffffffffffffffffffffff1673ffffffffffffffffffffffffffffffffffffffff168152602001908152602001600020819055505b5050565b60046020528060005260406000206000915090505481565b60006002546107066109ce565b10905090565b60025481565b600560009054906101000a900460ff1681565b60015481565b600360149054906101000a900460ff1681565b600080600381111561075357610752610bb5565b5b600360149054906101000a900460ff16600381111561077557610774610bb5565b5b146107b5576040517f08c379a00000000000000000000000000000000000000000000000000000000081526004016107ac90610cf4565b60405180910390fd5b6107bd6106f9565b6107fc576040517f08c379a00000000000000000000000000000000000000000000000000000000081526004016107f390610ebb565b60405180910390fd5b34600460003373ffffffffffffffffffffffffffffffffffffffff1673ffffffffffffffffffffffffffffffffffffffff168152602001908152602001600020600082825461084b9190610f0a565b9250508190555034600660008282546108649190610f0a565b9250508190555060015460065410610892576001600560006101000a81548160ff0219169083151502179055505b50565b60065481565b60028060038111156108b0576108af610bb5565b5b600360149054906101000a900460ff1660038111156108d2576108d1610bb5565b5b14610912576040517f08c379a000000000000000000000000000000000000000000000000000000000815260040161090990610cf4565b60405180910390fd5b600360009054906101000a900473ffffffffffffffffffffffffffffffffffffffff1673ffffffffffffffffffffffffffffffffffffffff166108fc6006549081150290604051600060405180830381858888f193505050501561099f5760038060146101000a81548160ff0219169083600381111561099557610994610bb5565b5b02179055506109cb565b6001600360146101000a81548160ff021916908360038111156109c5576109c4610bb5565b5b02179055505b50565b600042905090565b600081519050919050565b600082825260208201905092915050565b60005b83811015610a105780820151818401526020810190506109f5565b83811115610a1f576000848401525b50505050565b6000601f19601f8301169050919050565b6000610a41826109d6565b610a4b81856109e1565b9350610a5b8185602086016109f2565b610a6481610a25565b840191505092915050565b60006020820190508181036000830152610a898184610a36565b905092915050565b600073ffffffffffffffffffffffffffffffffffffffff82169050919050565b6000610abc82610a91565b9050919050565b610acc81610ab1565b82525050565b6000602082019050610ae76000830184610ac3565b92915050565b600080fd5b610afb81610ab1565b8114610b0657600080fd5b50565b600081359050610b1881610af2565b92915050565b600060208284031215610b3457610b33610aed565b5b6000610b4284828501610b09565b91505092915050565b6000819050919050565b610b5e81610b4b565b82525050565b6000602082019050610b796000830184610b55565b92915050565b60008115159050919050565b610b9481610b7f565b82525050565b6000602082019050610baf6000830184610b8b565b92915050565b7f4e487b7100000000000000000000000000000000000000000000000000000000600052602160045260246000fd5b60048110610bf557610bf4610bb5565b5b50565b6000819050610c0682610be4565b919050565b6000610c1682610bf8565b9050919050565b610c2681610c0b565b82525050565b6000602082019050610c416000830184610c1d565b92915050565b7f4e487b7100000000000000000000000000000000000000000000000000000000600052602260045260246000fd5b60006002820490506001821680610c8e57607f821691505b60208210811415610ca257610ca1610c47565b5b50919050565b7f496e76616c696420737461746500000000000000000000000000000000000000600082015250565b6000610cde600d836109e1565b9150610ce982610ca8565b602082019050919050565b60006020820190508181036000830152610d0d81610cd1565b9050919050565b7f43616e6e6f742066696e6973682063616d706169676e206265666f726520612060008201527f646561646c696e65000000000000000000000000000000000000000000000000602082015250565b6000610d706028836109e1565b9150610d7b82610d14565b604082019050919050565b60006020820190508181036000830152610d9f81610d63565b9050919050565b6000606082019050610dbb6000830186610ac3565b610dc86020830185610b55565b610dd56040830184610b8b565b949350505050565b7f4e6f7468696e672077617320636f6e7472696275746564000000000000000000600082015250565b6000610e136017836109e1565b9150610e1e82610ddd565b602082019050919050565b60006020820190508181036000830152610e4281610e06565b9050919050565b7f4e6f20636f6e747269627574696f6e732061667465722074686520646561646c60008201527f696e650000000000000000000000000000000000000000000000000000000000602082015250565b6000610ea56023836109e1565b9150610eb082610e49565b604082019050919050565b60006020820190508181036000830152610ed481610e98565b9050919050565b7f4e487b7100000000000000000000000000000000000000000000000000000000600052601160045260246000fd5b6000610f1582610b4b565b9150610f2083610b4b565b9250827fffffffffffffffffffffffffffffffffffffffffffffffffffffffffffffffff03821115610f5557610f54610edb565b5b82820190509291505056fea2646970667358221220725bda9870313762fc524a9d8206ab545cb4d0d75cc49cba9a8766526ded614264736f6c634300080a0033",
  "deployedBytecode": "0x6080604052600436106100c25760003560e01c8063796b23bb1161007f578063c19d93fb11610059578063c19d93fb14610234578063d7bb99ba1461025f578063e29eb83614610269578063e522538114610294576100c2565b8063796b23bb146101b357806384bcefd4146101de578063953b8fb814610209576100c2565b806306fdde03146100c7578063083dca11146100f257806338af3eed146101095780633ccfd60b1461013457806355a3b2c11461014b57806368bc004114610188575b600080fd5b3480156100d357600080fd5b506100dc6102ab565b6040516100e99190610a6f565b60405180910390f35b3480156100fe57600080fd5b50610107610339565b005b34801561011557600080fd5b5061011e6104b7565b60405161012b9190610ad2565b60405180910390f35b34801561014057600080fd5b506101496104dd565b005b34801561015757600080fd5b50610172600480360381019061016d9190610b1e565b6106e1565b60405161017f9190610b64565b60405180910390f35b34801561019457600080fd5b5061019d6106f9565b6040516101aa9190610b9a565b60405180910390f35b3480156101bf57600080fd5b506101c861070c565b6040516101d59190610b64565b60405180910390f35b3480156101ea57600080fd5b506101f3610712565b6040516102009190610b9a565b60405180910390f35b34801561021557600080fd5b5061021e610725565b60405161022b9190610b64565b60405180910390f35b34801561024057600080fd5b5061024961072b565b6040516102569190610c2c565b60405180910390f35b61026761073e565b005b34801561027557600080fd5b5061027e610895565b60405161028b9190610b64565b60405180910390f35b3480156102a057600080fd5b506102a961089b565b005b600080546102b890610c76565b80601f01602080910402602001604051908101604052809291908181526020018280546102e490610c76565b80156103315780601f1061030657610100808354040283529160200191610331565b820191906000526020600020905b81548152906001019060200180831161031457829003601f168201915b505050505081565b600080600381111561034e5761034d610bb5565b5b600360149054906101000a900460ff1660038111156103705761036f610bb5565b5b146103b0576040517f08c379a00000000000000000000000000000000000000000000000000000000081526004016103a790610cf4565b60405180910390fd5b6103b86106f9565b156103f8576040517f08c379a00000000000000000000000000000000000000000000000000000000081526004016103ef90610d86565b60405180910390fd5b600560009054906101000a900460ff1661043c576001600360146101000a81548160ff0219169083600381111561043257610431610bb5565b5b0217905550610468565b6002600360146101000a81548160ff0219169083600381111561046257610461610bb5565b5b02179055505b7f6fa7e87ebbd87ed4f1c40bba63144f68fd2bb022fb748ab3b61b5411c39bd47430600654600560009054906101000a900460ff166040516104ac93929190610da6565b60405180910390a150565b600360009054906101000a900473ffffffffffffffffffffffffffffffffffffffff1681565b60018060038111156104f2576104f1610bb5565b5b600360149054906101000a900460ff16600381111561051457610513610bb5565b5b14610554576040517f08c379a000000000000000000000000000000000000000000000000000000000815260040161054b90610cf4565b60405180910390fd5b6000600460003373ffffffffffffffffffffffffffffffffffffffff1673ffffffffffffffffffffffffffffffffffffffff16815260200190815260200160002054116105d6576040517f08c379a00000000000000000000000000000000000000000000000000000000081526004016105cd90610e29565b60405180910390fd5b6000600460003373ffffffffffffffffffffffffffffffffffffffff1673ffffffffffffffffffffffffffffffffffffffff1681526020019081526020016000205490506000600460003373ffffffffffffffffffffffffffffffffffffffff1673ffffffffffffffffffffffffffffffffffffffff168152602001908152602001600020819055503373ffffffffffffffffffffffffffffffffffffffff166108fc829081150290604051600060405180830381858888f193505050506106dd5780600460003373ffffffffffffffffffffffffffffffffffffffff1673ffffffffffffffffffffffffffffffffffffffff168152602001908152602001600020819055505b5050565b60046020528060005260406000206000915090505481565b60006002546107066109ce565b10905090565b60025481565b600560009054906101000a900460ff1681565b60015481565b600360149054906101000a900460ff1681565b600080600381111561075357610752610bb5565b5b600360149054906101000a900460ff16600381111561077557610774610bb5565b5b146107b5576040517f08c379a00000000000000000000000000000000000000000000000000000000081526004016107ac90610cf4565b60405180910390fd5b6107bd6106f9565b6107fc576040517f08c379a00000000000000000000000000000000000000000000000000000000081526004016107f390610ebb565b60405180910390fd5b34600460003373ffffffffffffffffffffffffffffffffffffffff1673ffffffffffffffffffffffffffffffffffffffff168152602001908152602001600020600082825461084b9190610f0a565b9250508190555034600660008282546108649190610f0a565b9250508190555060015460065410610892576001600560006101000a81548160ff0219169083151502179055505b50565b60065481565b60028060038111156108b0576108af610bb5565b5b600360149054906101000a900460ff1660038111156108d2576108d1610bb5565b5b14610912576040517f08c379a000000000000000000000000000000000000000000000000000000000815260040161090990610cf4565b60405180910390fd5b600360009054906101000a900473ffffffffffffffffffffffffffffffffffffffff1673ffffffffffffffffffffffffffffffffffffffff166108fc6006549081150290604051600060405180830381858888f193505050501561099f5760038060146101000a81548160ff0219169083600381111561099557610994610bb5565b5b02179055506109cb565b6001600360146101000a81548160ff021916908360038111156109c5576109c4610bb5565b5b02179055505b50565b600042905090565b600081519050919050565b600082825260208201905092915050565b60005b83811015610a105780820151818401526020810190506109f5565b83811115610a1f576000848401525b50505050565b6000601f19601f8301169050919050565b6000610a41826109d6565b610a4b81856109e1565b9350610a5b8185602086016109f2565b610a6481610a25565b840191505092915050565b60006020820190508181036000830152610a898184610a36565b905092915050565b600073ffffffffffffffffffffffffffffffffffffffff82169050919050565b6000610abc82610a91565b9050919050565b610acc81610ab1565b82525050565b6000602082019050610ae76000830184610ac3565b92915050565b600080fd5b610afb81610ab1565b8114610b0657600080fd5b50565b600081359050610b1881610af2565b92915050565b600060208284031215610b3457610b33610aed565b5b6000610b4284828501610b09565b91505092915050565b6000819050919050565b610b5e81610b4b565b82525050565b6000602082019050610b796000830184610b55565b92915050565b60008115159050919050565b610b9481610b7f565b82525050565b6000602082019050610baf6000830184610b8b565b92915050565b7f4e487b7100000000000000000000000000000000000000000000000000000000600052602160045260246000fd5b60048110610bf557610bf4610bb5565b5b50565b6000819050610c0682610be4565b919050565b6000610c1682610bf8565b9050919050565b610c2681610c0b565b82525050565b6000602082019050610c416000830184610c1d565b92915050565b7f4e487b7100000000000000000000000000000000000000000000000000000000600052602260045260246000fd5b60006002820490506001821680610c8e57607f821691505b60208210811415610ca257610ca1610c47565b5b50919050565b7f496e76616c696420737461746500000000000000000000000000000000000000600082015250565b6000610cde600d836109e1565b9150610ce982610ca8565b602082019050919050565b60006020820190508181036000830152610d0d81610cd1565b9050919050565b7f43616e6e6f742066696e6973682063616d706169676e206265666f726520612060008201527f646561646c696e65000000000000000000000000000000000000000000000000602082015250565b6000610d706028836109e1565b9150610d7b82610d14565b604082019050919050565b60006020820190508181036000830152610d9f81610d63565b9050919050565b6000606082019050610dbb6000830186610ac3565b610dc86020830185610b55565b610dd56040830184610b8b565b949350505050565b7f4e6f7468696e672077617320636f6e7472696275746564000000000000000000600082015250565b6000610e136017836109e1565b9150610e1e82610ddd565b602082019050919050565b60006020820190508181036000830152610e4281610e06565b9050919050565b7f4e6f20636f6e747269627574696f6e732061667465722074686520646561646c60008201527f696e650000000000000000000000000000000000000000000000000000000000602082015250565b6000610ea56023836109e1565b9150610eb082610e49565b604082019050919050565b60006020820190508181036000830152610ed481610e98565b9050919050565b7f4e487b7100000000000000000000000000000000000000000000000000000000600052601160045260246000fd5b6000610f1582610b4b565b9150610f2083610b4b565b9250827fffffffffffffffffffffffffffffffffffffffffffffffffffffffffffffffff03821115610f5557610f54610edb565b5b82820190509291505056fea2646970667358221220725bda9870313762fc524a9d8206ab545cb4d0d75cc49cba9a8766526ded614264736f6c634300080a0033",
  "immutableReferences": {},
  "source": "// SPDX-License-Identifier: MIT\npragma solidity >=0.8.10;\n\nimport \"./Utils.sol\";\ncontract CrowdFundingWithDeadline {\n    using Utils for *;\n\n    enum State {\n        Ongoing,\n        Failed,\n        Succeeded,\n        PaidOut\n    }\n\n    event CampaignFinished(address addr, uint totalCollected, bool succeeded);\n\n    string public name;\n    uint256 public targetAmount;\n    uint256 public fundingDeadline;\n    address public beneficiary;\n    State public state;\n    mapping(address => uint) public amounts;\n    bool public collected;\n    uint public totalCollected;\n\n    modifier inState(State expectedState) {\n        require(state == expectedState, \"Invalid state\");\n        _;\n    }\n\n    constructor(\n        string memory contractName,\n        uint256 targetAmountEth,\n        uint256 durationInMin,\n        address beneficiaryAddress\n    ) {\n        name = contractName;\n        targetAmount = Utils.etherToWei(targetAmountEth);\n        fundingDeadline = currentTime() + Utils.minToSec(durationInMin);\n        beneficiary = beneficiaryAddress;\n        state = State.Ongoing;\n    }\n\n    function contribute() public payable inState(State.Ongoing) {\n        require(\n            beforeDeadline(),\n            \"No contributions after the deadline\"\n        );\n        amounts[msg.sender] += msg.value;\n        totalCollected += msg.value;\n\n        if (totalCollected >= targetAmount) {\n            collected = true;\n        }\n    }\n\n    function collect() public inState(State.Succeeded) {\n        if (payable(beneficiary).send(totalCollected)) {\n            state = State.PaidOut;\n        } else {\n            state = State.Failed;\n        }\n    }\n\n    function withdraw() public inState(State.Failed) {\n        require(amounts[msg.sender] > 0, \"Nothing was contributed\");\n        uint contributed = amounts[msg.sender];\n        amounts[msg.sender] = 0;\n\n        if (!payable(msg.sender).send(contributed)) {\n            amounts[msg.sender] = contributed;\n        }\n    }\n    function beforeDeadline() public view returns(bool) {\n        return currentTime() < fundingDeadline;\n    }\n\n    function finishCrowdFunding() public inState(State.Ongoing) {\n        require(!beforeDeadline(), \"Cannot finish campaign before a deadline\");\n        if (!collected) {\n            state = State.Failed;\n        } else {\n            state = State.Succeeded;\n        }\n\n        emit CampaignFinished(address(this), totalCollected, collected);\n    }\n\n    function currentTime() virtual internal view returns (uint256) {\n        return block.timestamp;\n    }\n}\n",
  "sourcePath": "/workspace/contracts/CrowdFundingWithDeadline.sol",
  "compiler": {
    "name": "solc",
    "version": "0.8.10+commit.fc410830.Emscripten.clang"
  },
  "schemaVersion": "3.4.4",
  "updatedAt": "2021-12-23T23:31:18.424Z",
  "networkType": "ethereum",
  "devdoc": {
    "kind": "dev",
    "methods": {},
    "version": 1
  },
  "userdoc": {
    "kind": "user",
    "methods": {},
    "version": 1
  }
}