{
  "contractName": "TestCrowdFundingWithDeadline",
  "abi": [
    {
      "inputs": [
        {
          "internalType": "string",
          "name": "contractName",
          "type": "string"
        },
        {
          "internalType": "uint256",
          "name": "targetAmountEth",
          "type": "uint256"
        },
        {
          "internalType": "uint256",
          "name": "durationInMin",
          "type": "uint256"
        },
        {
          "internalType": "address",
          "name": "beneficiaryAddress",
          "type": "address"
        }
      ],
      "stateMutability": "nonpayable",
      "type": "constructor"
    },
    {
      "anonymous": false,
      "inputs": [
        {
          "indexed": false,
          "internalType": "address",
          "name": "addr",
          "type": "address"
        },
        {
          "indexed": false,
          "internalType": "uint256",
          "name": "totalCollected",
          "type": "uint256"
        },
        {
          "indexed": false,
          "internalType": "bool",
          "name": "succeeded",
          "type": "bool"
        }
      ],
      "name": "CampaignFinished",
      "type": "event"
    },
    {
      "inputs": [
        {
          "internalType": "address",
          "name": "",
          "type": "address"
        }
      ],
      "name": "amounts",
      "outputs": [
        {
          "internalType": "uint256",
          "name": "",
          "type": "uint256"
        }
      ],
      "stateMutability": "view",
      "type": "function"
    },
    {
      "inputs": [],
      "name": "beforeDeadline",
      "outputs": [
        {
          "internalType": "bool",
          "name": "",
          "type": "bool"
        }
      ],
      "stateMutability": "view",
      "type": "function"
    },
    {
      "inputs": [],
      "name": "beneficiary",
      "outputs": [
        {
          "internalType": "address",
          "name": "",
          "type": "address"
        }
      ],
      "stateMutability": "view",
      "type": "function"
    },
    {
      "inputs": [],
      "name": "collect",
      "outputs": [],
      "stateMutability": "nonpayable",
      "type": "function"
    },
    {
      "inputs": [],
      "name": "collected",
      "outputs": [
        {
          "internalType": "bool",
          "name": "",
          "type": "bool"
        }
      ],
      "stateMutability": "view",
      "type": "function"
    },
    {
      "inputs": [],
      "name": "contribute",
      "outputs": [],
      "stateMutability": "payable",
      "type": "function"
    },
    {
      "inputs": [],
      "name": "finishCrowdFunding",
      "outputs": [],
      "stateMutability": "nonpayable",
      "type": "function"
    },
    {
      "inputs": [],
      "name": "fundingDeadline",
      "outputs": [
        {
          "internalType": "uint256",
          "name": "",
          "type": "uint256"
        }
      ],
      "stateMutability": "view",
      "type": "function"
    },
    {
      "inputs": [],
      "name": "name",
      "outputs": [
        {
          "internalType": "string",
          "name": "",
          "type": "string"
        }
      ],
      "stateMutability": "view",
      "type": "function"
    },
    {
      "inputs": [],
      "name": "state",
      "outputs": [
        {
          "internalType": "enum CrowdFundingWithDeadline.State",
          "name": "",
          "type": "uint8"
        }
      ],
      "stateMutability": "view",
      "type": "function"
    },
    {
      "inputs": [],
      "name": "targetAmount",
      "outputs": [
        {
          "internalType": "uint256",
          "name": "",
          "type": "uint256"
        }
      ],
      "stateMutability": "view",
      "type": "function"
    },
    {
      "inputs": [],
      "name": "totalCollected",
      "outputs": [
        {
          "internalType": "uint256",
          "name": "",
          "type": "uint256"
        }
      ],
      "stateMutability": "view",
      "type": "function"
    },
    {
      "inputs": [],
      "name": "withdraw",
      "outputs": [],
      "stateMutability": "nonpayable",
      "type": "function"
    },
    {
      "inputs": [
        {
          "internalType": "uint256",
          "name": "newTime",
          "type": "uint256"
        }
      ],
      "name": "setCurrentTime",
      "outputs": [],
      "stateMutability": "nonpayable",
      "type": "function"
    }
  ],
  "bytecode": "0x60806040523480156200001157600080fd5b506040516200174a3803806200174a8339818101604052810190620000379190620004ea565b83838383836000908051906020019062000053929190620001fd565b5073__Utils_________________________________63d8916bb9846040518263ffffffff1660e01b81526004016200008d91906200058c565b602060405180830381865af4158015620000ab573d6000803e3d6000fd5b505050506040513d601f19601f82011682018060405250810190620000d19190620005a9565b60018190555073__Utils_________________________________63cd6fb042836040518263ffffffff1660e01b81526004016200011091906200058c565b602060405180830381865af41580156200012e573d6000803e3d6000fd5b505050506040513d601f19601f82011682018060405250810190620001549190620005a9565b62000164620001f360201b60201c565b6200017091906200060a565b60028190555080600360006101000a81548173ffffffffffffffffffffffffffffffffffffffff021916908373ffffffffffffffffffffffffffffffffffffffff1602179055506000600360146101000a81548160ff02191690836003811115620001e057620001df62000667565b5b02179055505050505050505050620006fb565b6000600754905090565b8280546200020b90620006c5565b90600052602060002090601f0160209004810192826200022f57600085556200027b565b82601f106200024a57805160ff19168380011785556200027b565b828001600101855582156200027b579182015b828111156200027a5782518255916020019190600101906200025d565b5b5090506200028a91906200028e565b5090565b5b80821115620002a95760008160009055506001016200028f565b5090565b6000604051905090565b600080fd5b600080fd5b600080fd5b600080fd5b6000601f19601f8301169050919050565b7f4e487b7100000000000000000000000000000000000000000000000000000000600052604160045260246000fd5b6200031682620002cb565b810181811067ffffffffffffffff82111715620003385762000337620002dc565b5b80604052505050565b60006200034d620002ad565b90506200035b82826200030b565b919050565b600067ffffffffffffffff8211156200037e576200037d620002dc565b5b6200038982620002cb565b9050602081019050919050565b60005b83811015620003b657808201518184015260208101905062000399565b83811115620003c6576000848401525b50505050565b6000620003e3620003dd8462000360565b62000341565b905082815260208101848484011115620004025762000401620002c6565b5b6200040f84828562000396565b509392505050565b600082601f8301126200042f576200042e620002c1565b5b815162000441848260208601620003cc565b91505092915050565b6000819050919050565b6200045f816200044a565b81146200046b57600080fd5b50565b6000815190506200047f8162000454565b92915050565b600073ffffffffffffffffffffffffffffffffffffffff82169050919050565b6000620004b28262000485565b9050919050565b620004c481620004a5565b8114620004d057600080fd5b50565b600081519050620004e481620004b9565b92915050565b60008060008060808587031215620005075762000506620002b7565b5b600085015167ffffffffffffffff811115620005285762000527620002bc565b5b620005368782880162000417565b945050602062000549878288016200046e565b93505060406200055c878288016200046e565b92505060606200056f87828801620004d3565b91505092959194509250565b62000586816200044a565b82525050565b6000602082019050620005a360008301846200057b565b92915050565b600060208284031215620005c257620005c1620002b7565b5b6000620005d2848285016200046e565b91505092915050565b7f4e487b7100000000000000000000000000000000000000000000000000000000600052601160045260246000fd5b600062000617826200044a565b915062000624836200044a565b9250827fffffffffffffffffffffffffffffffffffffffffffffffffffffffffffffffff038211156200065c576200065b620005db565b5b828201905092915050565b7f4e487b7100000000000000000000000000000000000000000000000000000000600052602160045260246000fd5b7f4e487b7100000000000000000000000000000000000000000000000000000000600052602260045260246000fd5b60006002820490506001821680620006de57607f821691505b60208210811415620006f557620006f462000696565b5b50919050565b61103f806200070b6000396000f3fe6080604052600436106100dd5760003560e01c8063796b23bb1161007f578063c19d93fb11610059578063c19d93fb14610278578063d7bb99ba146102a3578063e29eb836146102ad578063e5225381146102d8576100dd565b8063796b23bb146101f757806384bcefd414610222578063953b8fb81461024d576100dd565b806338af3eed116100bb57806338af3eed1461014d5780633ccfd60b1461017857806355a3b2c11461018f57806368bc0041146101cc576100dd565b806306fdde03146100e2578063083dca111461010d57806322f8e56614610124575b600080fd5b3480156100ee57600080fd5b506100f76102ef565b6040516101049190610abf565b60405180910390f35b34801561011957600080fd5b5061012261037d565b005b34801561013057600080fd5b5061014b60048036038101906101469190610b1c565b6104fb565b005b34801561015957600080fd5b50610162610505565b60405161016f9190610b8a565b60405180910390f35b34801561018457600080fd5b5061018d61052b565b005b34801561019b57600080fd5b506101b660048036038101906101b19190610bd1565b61072f565b6040516101c39190610c0d565b60405180910390f35b3480156101d857600080fd5b506101e1610747565b6040516101ee9190610c43565b60405180910390f35b34801561020357600080fd5b5061020c61075a565b6040516102199190610c0d565b60405180910390f35b34801561022e57600080fd5b50610237610760565b6040516102449190610c43565b60405180910390f35b34801561025957600080fd5b50610262610773565b60405161026f9190610c0d565b60405180910390f35b34801561028457600080fd5b5061028d610779565b60405161029a9190610cd5565b60405180910390f35b6102ab61078c565b005b3480156102b957600080fd5b506102c26108e3565b6040516102cf9190610c0d565b60405180910390f35b3480156102e457600080fd5b506102ed6108e9565b005b600080546102fc90610d1f565b80601f016020809104026020016040519081016040528092919081815260200182805461032890610d1f565b80156103755780601f1061034a57610100808354040283529160200191610375565b820191906000526020600020905b81548152906001019060200180831161035857829003601f168201915b505050505081565b600080600381111561039257610391610c5e565b5b600360149054906101000a900460ff1660038111156103b4576103b3610c5e565b5b146103f4576040517f08c379a00000000000000000000000000000000000000000000000000000000081526004016103eb90610d9d565b60405180910390fd5b6103fc610747565b1561043c576040517f08c379a000000000000000000000000000000000000000000000000000000000815260040161043390610e2f565b60405180910390fd5b600560009054906101000a900460ff16610480576001600360146101000a81548160ff0219169083600381111561047657610475610c5e565b5b02179055506104ac565b6002600360146101000a81548160ff021916908360038111156104a6576104a5610c5e565b5b02179055505b7f6fa7e87ebbd87ed4f1c40bba63144f68fd2bb022fb748ab3b61b5411c39bd47430600654600560009054906101000a900460ff166040516104f093929190610e4f565b60405180910390a150565b8060078190555050565b600360009054906101000a900473ffffffffffffffffffffffffffffffffffffffff1681565b60018060038111156105405761053f610c5e565b5b600360149054906101000a900460ff16600381111561056257610561610c5e565b5b146105a2576040517f08c379a000000000000000000000000000000000000000000000000000000000815260040161059990610d9d565b60405180910390fd5b6000600460003373ffffffffffffffffffffffffffffffffffffffff1673ffffffffffffffffffffffffffffffffffffffff1681526020019081526020016000205411610624576040517f08c379a000000000000000000000000000000000000000000000000000000000815260040161061b90610ed2565b60405180910390fd5b6000600460003373ffffffffffffffffffffffffffffffffffffffff1673ffffffffffffffffffffffffffffffffffffffff1681526020019081526020016000205490506000600460003373ffffffffffffffffffffffffffffffffffffffff1673ffffffffffffffffffffffffffffffffffffffff168152602001908152602001600020819055503373ffffffffffffffffffffffffffffffffffffffff166108fc829081150290604051600060405180830381858888f1935050505061072b5780600460003373ffffffffffffffffffffffffffffffffffffffff1673ffffffffffffffffffffffffffffffffffffffff168152602001908152602001600020819055505b5050565b60046020528060005260406000206000915090505481565b6000600254610754610a1c565b10905090565b60025481565b600560009054906101000a900460ff1681565b60015481565b600360149054906101000a900460ff1681565b60008060038111156107a1576107a0610c5e565b5b600360149054906101000a900460ff1660038111156107c3576107c2610c5e565b5b14610803576040517f08c379a00000000000000000000000000000000000000000000000000000000081526004016107fa90610d9d565b60405180910390fd5b61080b610747565b61084a576040517f08c379a000000000000000000000000000000000000000000000000000000000815260040161084190610f64565b60405180910390fd5b34600460003373ffffffffffffffffffffffffffffffffffffffff1673ffffffffffffffffffffffffffffffffffffffff16815260200190815260200160002060008282546108999190610fb3565b9250508190555034600660008282546108b29190610fb3565b92505081905550600154600654106108e0576001600560006101000a81548160ff0219169083151502179055505b50565b60065481565b60028060038111156108fe576108fd610c5e565b5b600360149054906101000a900460ff1660038111156109205761091f610c5e565b5b14610960576040517f08c379a000000000000000000000000000000000000000000000000000000000815260040161095790610d9d565b60405180910390fd5b600360009054906101000a900473ffffffffffffffffffffffffffffffffffffffff1673ffffffffffffffffffffffffffffffffffffffff166108fc6006549081150290604051600060405180830381858888f19350505050156109ed5760038060146101000a81548160ff021916908360038111156109e3576109e2610c5e565b5b0217905550610a19565b6001600360146101000a81548160ff02191690836003811115610a1357610a12610c5e565b5b02179055505b50565b6000600754905090565b600081519050919050565b600082825260208201905092915050565b60005b83811015610a60578082015181840152602081019050610a45565b83811115610a6f576000848401525b50505050565b6000601f19601f8301169050919050565b6000610a9182610a26565b610a9b8185610a31565b9350610aab818560208601610a42565b610ab481610a75565b840191505092915050565b60006020820190508181036000830152610ad98184610a86565b905092915050565b600080fd5b6000819050919050565b610af981610ae6565b8114610b0457600080fd5b50565b600081359050610b1681610af0565b92915050565b600060208284031215610b3257610b31610ae1565b5b6000610b4084828501610b07565b91505092915050565b600073ffffffffffffffffffffffffffffffffffffffff82169050919050565b6000610b7482610b49565b9050919050565b610b8481610b69565b82525050565b6000602082019050610b9f6000830184610b7b565b92915050565b610bae81610b69565b8114610bb957600080fd5b50565b600081359050610bcb81610ba5565b92915050565b600060208284031215610be757610be6610ae1565b5b6000610bf584828501610bbc565b91505092915050565b610c0781610ae6565b82525050565b6000602082019050610c226000830184610bfe565b92915050565b60008115159050919050565b610c3d81610c28565b82525050565b6000602082019050610c586000830184610c34565b92915050565b7f4e487b7100000000000000000000000000000000000000000000000000000000600052602160045260246000fd5b60048110610c9e57610c9d610c5e565b5b50565b6000819050610caf82610c8d565b919050565b6000610cbf82610ca1565b9050919050565b610ccf81610cb4565b82525050565b6000602082019050610cea6000830184610cc6565b92915050565b7f4e487b7100000000000000000000000000000000000000000000000000000000600052602260045260246000fd5b60006002820490506001821680610d3757607f821691505b60208210811415610d4b57610d4a610cf0565b5b50919050565b7f496e76616c696420737461746500000000000000000000000000000000000000600082015250565b6000610d87600d83610a31565b9150610d9282610d51565b602082019050919050565b60006020820190508181036000830152610db681610d7a565b9050919050565b7f43616e6e6f742066696e6973682063616d706169676e206265666f726520612060008201527f646561646c696e65000000000000000000000000000000000000000000000000602082015250565b6000610e19602883610a31565b9150610e2482610dbd565b604082019050919050565b60006020820190508181036000830152610e4881610e0c565b9050919050565b6000606082019050610e646000830186610b7b565b610e716020830185610bfe565b610e7e6040830184610c34565b949350505050565b7f4e6f7468696e672077617320636f6e7472696275746564000000000000000000600082015250565b6000610ebc601783610a31565b9150610ec782610e86565b602082019050919050565b60006020820190508181036000830152610eeb81610eaf565b9050919050565b7f4e6f20636f6e747269627574696f6e732061667465722074686520646561646c60008201527f696e650000000000000000000000000000000000000000000000000000000000602082015250565b6000610f4e602383610a31565b9150610f5982610ef2565b604082019050919050565b60006020820190508181036000830152610f7d81610f41565b9050919050565b7f4e487b7100000000000000000000000000000000000000000000000000000000600052601160045260246000fd5b6000610fbe82610ae6565b9150610fc983610ae6565b9250827fffffffffffffffffffffffffffffffffffffffffffffffffffffffffffffffff03821115610ffe57610ffd610f84565b5b82820190509291505056fea2646970667358221220e7a7c9d4c90cd1fce1e5459841e24f449d63715d83178f6863fcc146e9e712b764736f6c634300080a0033",
  "deployedBytecode": "0x6080604052600436106100dd5760003560e01c8063796b23bb1161007f578063c19d93fb11610059578063c19d93fb14610278578063d7bb99ba146102a3578063e29eb836146102ad578063e5225381146102d8576100dd565b8063796b23bb146101f757806384bcefd414610222578063953b8fb81461024d576100dd565b806338af3eed116100bb57806338af3eed1461014d5780633ccfd60b1461017857806355a3b2c11461018f57806368bc0041146101cc576100dd565b806306fdde03146100e2578063083dca111461010d57806322f8e56614610124575b600080fd5b3480156100ee57600080fd5b506100f76102ef565b6040516101049190610abf565b60405180910390f35b34801561011957600080fd5b5061012261037d565b005b34801561013057600080fd5b5061014b60048036038101906101469190610b1c565b6104fb565b005b34801561015957600080fd5b50610162610505565b60405161016f9190610b8a565b60405180910390f35b34801561018457600080fd5b5061018d61052b565b005b34801561019b57600080fd5b506101b660048036038101906101b19190610bd1565b61072f565b6040516101c39190610c0d565b60405180910390f35b3480156101d857600080fd5b506101e1610747565b6040516101ee9190610c43565b60405180910390f35b34801561020357600080fd5b5061020c61075a565b6040516102199190610c0d565b60405180910390f35b34801561022e57600080fd5b50610237610760565b6040516102449190610c43565b60405180910390f35b34801561025957600080fd5b50610262610773565b60405161026f9190610c0d565b60405180910390f35b34801561028457600080fd5b5061028d610779565b60405161029a9190610cd5565b60405180910390f35b6102ab61078c565b005b3480156102b957600080fd5b506102c26108e3565b6040516102cf9190610c0d565b60405180910390f35b3480156102e457600080fd5b506102ed6108e9565b005b600080546102fc90610d1f565b80601f016020809104026020016040519081016040528092919081815260200182805461032890610d1f565b80156103755780601f1061034a57610100808354040283529160200191610375565b820191906000526020600020905b81548152906001019060200180831161035857829003601f168201915b505050505081565b600080600381111561039257610391610c5e565b5b600360149054906101000a900460ff1660038111156103b4576103b3610c5e565b5b146103f4576040517f08c379a00000000000000000000000000000000000000000000000000000000081526004016103eb90610d9d565b60405180910390fd5b6103fc610747565b1561043c576040517f08c379a000000000000000000000000000000000000000000000000000000000815260040161043390610e2f565b60405180910390fd5b600560009054906101000a900460ff16610480576001600360146101000a81548160ff0219169083600381111561047657610475610c5e565b5b02179055506104ac565b6002600360146101000a81548160ff021916908360038111156104a6576104a5610c5e565b5b02179055505b7f6fa7e87ebbd87ed4f1c40bba63144f68fd2bb022fb748ab3b61b5411c39bd47430600654600560009054906101000a900460ff166040516104f093929190610e4f565b60405180910390a150565b8060078190555050565b600360009054906101000a900473ffffffffffffffffffffffffffffffffffffffff1681565b60018060038111156105405761053f610c5e565b5b600360149054906101000a900460ff16600381111561056257610561610c5e565b5b146105a2576040517f08c379a000000000000000000000000000000000000000000000000000000000815260040161059990610d9d565b60405180910390fd5b6000600460003373ffffffffffffffffffffffffffffffffffffffff1673ffffffffffffffffffffffffffffffffffffffff1681526020019081526020016000205411610624576040517f08c379a000000000000000000000000000000000000000000000000000000000815260040161061b90610ed2565b60405180910390fd5b6000600460003373ffffffffffffffffffffffffffffffffffffffff1673ffffffffffffffffffffffffffffffffffffffff1681526020019081526020016000205490506000600460003373ffffffffffffffffffffffffffffffffffffffff1673ffffffffffffffffffffffffffffffffffffffff168152602001908152602001600020819055503373ffffffffffffffffffffffffffffffffffffffff166108fc829081150290604051600060405180830381858888f1935050505061072b5780600460003373ffffffffffffffffffffffffffffffffffffffff1673ffffffffffffffffffffffffffffffffffffffff168152602001908152602001600020819055505b5050565b60046020528060005260406000206000915090505481565b6000600254610754610a1c565b10905090565b60025481565b600560009054906101000a900460ff1681565b60015481565b600360149054906101000a900460ff1681565b60008060038111156107a1576107a0610c5e565b5b600360149054906101000a900460ff1660038111156107c3576107c2610c5e565b5b14610803576040517f08c379a00000000000000000000000000000000000000000000000000000000081526004016107fa90610d9d565b60405180910390fd5b61080b610747565b61084a576040517f08c379a000000000000000000000000000000000000000000000000000000000815260040161084190610f64565b60405180910390fd5b34600460003373ffffffffffffffffffffffffffffffffffffffff1673ffffffffffffffffffffffffffffffffffffffff16815260200190815260200160002060008282546108999190610fb3565b9250508190555034600660008282546108b29190610fb3565b92505081905550600154600654106108e0576001600560006101000a81548160ff0219169083151502179055505b50565b60065481565b60028060038111156108fe576108fd610c5e565b5b600360149054906101000a900460ff1660038111156109205761091f610c5e565b5b14610960576040517f08c379a000000000000000000000000000000000000000000000000000000000815260040161095790610d9d565b60405180910390fd5b600360009054906101000a900473ffffffffffffffffffffffffffffffffffffffff1673ffffffffffffffffffffffffffffffffffffffff166108fc6006549081150290604051600060405180830381858888f19350505050156109ed5760038060146101000a81548160ff021916908360038111156109e3576109e2610c5e565b5b0217905550610a19565b6001600360146101000a81548160ff02191690836003811115610a1357610a12610c5e565b5b02179055505b50565b6000600754905090565b600081519050919050565b600082825260208201905092915050565b60005b83811015610a60578082015181840152602081019050610a45565b83811115610a6f576000848401525b50505050565b6000601f19601f8301169050919050565b6000610a9182610a26565b610a9b8185610a31565b9350610aab818560208601610a42565b610ab481610a75565b840191505092915050565b60006020820190508181036000830152610ad98184610a86565b905092915050565b600080fd5b6000819050919050565b610af981610ae6565b8114610b0457600080fd5b50565b600081359050610b1681610af0565b92915050565b600060208284031215610b3257610b31610ae1565b5b6000610b4084828501610b07565b91505092915050565b600073ffffffffffffffffffffffffffffffffffffffff82169050919050565b6000610b7482610b49565b9050919050565b610b8481610b69565b82525050565b6000602082019050610b9f6000830184610b7b565b92915050565b610bae81610b69565b8114610bb957600080fd5b50565b600081359050610bcb81610ba5565b92915050565b600060208284031215610be757610be6610ae1565b5b6000610bf584828501610bbc565b91505092915050565b610c0781610ae6565b82525050565b6000602082019050610c226000830184610bfe565b92915050565b60008115159050919050565b610c3d81610c28565b82525050565b6000602082019050610c586000830184610c34565b92915050565b7f4e487b7100000000000000000000000000000000000000000000000000000000600052602160045260246000fd5b60048110610c9e57610c9d610c5e565b5b50565b6000819050610caf82610c8d565b919050565b6000610cbf82610ca1565b9050919050565b610ccf81610cb4565b82525050565b6000602082019050610cea6000830184610cc6565b92915050565b7f4e487b7100000000000000000000000000000000000000000000000000000000600052602260045260246000fd5b60006002820490506001821680610d3757607f821691505b60208210811415610d4b57610d4a610cf0565b5b50919050565b7f496e76616c696420737461746500000000000000000000000000000000000000600082015250565b6000610d87600d83610a31565b9150610d9282610d51565b602082019050919050565b60006020820190508181036000830152610db681610d7a565b9050919050565b7f43616e6e6f742066696e6973682063616d706169676e206265666f726520612060008201527f646561646c696e65000000000000000000000000000000000000000000000000602082015250565b6000610e19602883610a31565b9150610e2482610dbd565b604082019050919050565b60006020820190508181036000830152610e4881610e0c565b9050919050565b6000606082019050610e646000830186610b7b565b610e716020830185610bfe565b610e7e6040830184610c34565b949350505050565b7f4e6f7468696e672077617320636f6e7472696275746564000000000000000000600082015250565b6000610ebc601783610a31565b9150610ec782610e86565b602082019050919050565b60006020820190508181036000830152610eeb81610eaf565b9050919050565b7f4e6f20636f6e747269627574696f6e732061667465722074686520646561646c60008201527f696e650000000000000000000000000000000000000000000000000000000000602082015250565b6000610f4e602383610a31565b9150610f5982610ef2565b604082019050919050565b60006020820190508181036000830152610f7d81610f41565b9050919050565b7f4e487b7100000000000000000000000000000000000000000000000000000000600052601160045260246000fd5b6000610fbe82610ae6565b9150610fc983610ae6565b9250827fffffffffffffffffffffffffffffffffffffffffffffffffffffffffffffffff03821115610ffe57610ffd610f84565b5b82820190509291505056fea2646970667358221220e7a7c9d4c90cd1fce1e5459841e24f449d63715d83178f6863fcc146e9e712b764736f6c634300080a0033",
  "immutableReferences": {},
  "source": "// SPDX-License-Identifier: MIT\npragma solidity >=0.8.10;\nimport \"./CrowdFundingWithDeadline.sol\";\n\ncontract TestCrowdFundingWithDeadline is CrowdFundingWithDeadline {\n    uint time;\n\n   constructor(\n        string memory contractName,\n        uint256 targetAmountEth,\n        uint256 durationInMin,\n        address beneficiaryAddress\n    ) CrowdFundingWithDeadline(\n        contractName,\n        targetAmountEth,\n        durationInMin,\n        beneficiaryAddress\n    ) {}\n\n    function currentTime() internal view override returns(uint) {\n        return time;\n    }\n\n    function setCurrentTime(uint newTime) public {\n        time = newTime;\n    }\n}",
  "sourcePath": "/workspace/contracts/TestCrowdFundingWithDeadline.sol",
  "compiler": {
    "name": "solc",
    "version": "0.8.10+commit.fc410830.Emscripten.clang"
  },
  "schemaVersion": "3.4.4",
  "updatedAt": "2021-12-23T23:30:50.792Z",
  "networkType": "ethereum",
  "devdoc": {
    "kind": "dev",
    "methods": {},
    "version": 1
  },
  "userdoc": {
    "kind": "user",
    "methods": {},
    "version": 1
  }
}